:100F4600BD2FFA30A000FA30A100FA30A200A20BA1
:100F5600AA2FA10BA82FA00BA62F08000A30A000CD
:100F6600A427A00BB32F08000330A000A427A00BD2
:100F7600B92F08000313831686010313831687010E
:100F8600031383128601031383128701031383124B
:100F9600061586160313831207148715B127031344
:100FA600831286010313831287010330A000031303
:100FB600831286140616A42786018701A427A00B90
:100FC600DA2F0313831207158716031383120614E9
:100FD6008615B12703138312860103138312870133
:100FE6000330A0000313831287140716A427860173
:0A0FF6008701A427A00BF52FC92FD7
:04400E00E423FF3F69
:00000001FF
